{
  "_format": "hh-sol-artifact-1",
  "contractName": "Voting",
  "sourceName": "contracts/Voting.sol",
  "abi": [
    {
      "inputs": [],
      "stateMutability": "nonpayable",
      "type": "constructor"
    },
    {
      "anonymous": false,
      "inputs": [
        {
          "indexed": false,
          "internalType": "string",
          "name": "name",
          "type": "string"
        }
      ],
      "name": "OptionAdded",
      "type": "event"
    },
    {
      "anonymous": false,
      "inputs": [
        {
          "indexed": false,
          "internalType": "string",
          "name": "optionName",
          "type": "string"
        }
      ],
      "name": "Voted",
      "type": "event"
    },
    {
      "inputs": [
        {
          "internalType": "uint256",
          "name": "_optionIndex",
          "type": "uint256"
        }
      ],
      "name": "getOption",
      "outputs": [
        {
          "internalType": "string",
          "name": "",
          "type": "string"
        },
        {
          "internalType": "uint256",
          "name": "",
          "type": "uint256"
        }
      ],
      "stateMutability": "view",
      "type": "function"
    },
    {
      "inputs": [],
      "name": "getOptionCount",
      "outputs": [
        {
          "internalType": "uint256",
          "name": "",
          "type": "uint256"
        }
      ],
      "stateMutability": "view",
      "type": "function"
    },
    {
      "inputs": [
        {
          "internalType": "address",
          "name": "",
          "type": "address"
        }
      ],
      "name": "hasVoted",
      "outputs": [
        {
          "internalType": "bool",
          "name": "",
          "type": "bool"
        }
      ],
      "stateMutability": "view",
      "type": "function"
    },
    {
      "inputs": [
        {
          "internalType": "uint256",
          "name": "",
          "type": "uint256"
        }
      ],
      "name": "options",
      "outputs": [
        {
          "internalType": "string",
          "name": "name",
          "type": "string"
        },
        {
          "internalType": "uint256",
          "name": "voteCount",
          "type": "uint256"
        }
      ],
      "stateMutability": "view",
      "type": "function"
    },
    {
      "inputs": [],
      "name": "owner",
      "outputs": [
        {
          "internalType": "address",
          "name": "",
          "type": "address"
        }
      ],
      "stateMutability": "view",
      "type": "function"
    },
    {
      "inputs": [
        {
          "internalType": "string",
          "name": "_name",
          "type": "string"
        }
      ],
      "name": "setOption",
      "outputs": [],
      "stateMutability": "nonpayable",
      "type": "function"
    },
    {
      "inputs": [
        {
          "internalType": "string[]",
          "name": "_names",
          "type": "string[]"
        }
      ],
      "name": "setOptions",
      "outputs": [],
      "stateMutability": "nonpayable",
      "type": "function"
    },
    {
      "inputs": [
        {
          "internalType": "uint256",
          "name": "_optionIndex",
          "type": "uint256"
        }
      ],
      "name": "vote",
      "outputs": [],
      "stateMutability": "nonpayable",
      "type": "function"
    }
  ],
  "bytecode": "0x608060405234801561001057600080fd5b5033600160006101000a81548173ffffffffffffffffffffffffffffffffffffffff021916908373ffffffffffffffffffffffffffffffffffffffff16021790555061126f806100616000396000f3fe608060405234801561001057600080fd5b50600436106100885760003560e01c8063506efdf01161005b578063506efdf01461013b5780638185d9da146101575780638da5cb5b14610173578063a6bd54271461019157610088565b80630121b93f1461008d57806309eef43e146100a95780631ce5e9a6146100d9578063409e22051461010a575b600080fd5b6100a760048036038101906100a2919061081c565b6101af565b005b6100c360048036038101906100be91906108a7565b610374565b6040516100d091906108ef565b60405180910390f35b6100f360048036038101906100ee919061081c565b610394565b6040516101019291906109a9565b60405180910390f35b610124600480360381019061011f919061081c565b6104be565b6040516101329291906109a9565b60405180910390f35b61015560048036038101906101509190610b0e565b61057a565b005b610171600480360381019061016c9190610c3d565b610670565b005b61017b6107a0565b6040516101889190610c95565b60405180910390f35b6101996107c6565b6040516101a69190610cb0565b60405180910390f35b60008054905081106101f6576040517f08c379a00000000000000000000000000000000000000000000000000000000081526004016101ed90610d17565b60405180910390fd5b600260003373ffffffffffffffffffffffffffffffffffffffff1673ffffffffffffffffffffffffffffffffffffffff16815260200190815260200160002060009054906101000a900460ff1615610283576040517f08c379a000000000000000000000000000000000000000000000000000000000815260040161027a90610d83565b60405180910390fd5b6001600260003373ffffffffffffffffffffffffffffffffffffffff1673ffffffffffffffffffffffffffffffffffffffff16815260200190815260200160002060006101000a81548160ff021916908315150217905550600081815481106102ef576102ee610da3565b5b9060005260206000209060020201600101600081548092919061031190610e01565b91905055507f38cb362e55241cdbab8a2f1105fb99fc7be1f0d6a865f97e688d6d5df0a036146000828154811061034b5761034a610da3565b5b90600052602060002090600202016000016040516103699190610f42565b60405180910390a150565b60026020528060005260406000206000915054906101000a900460ff1681565b60606000808054905083106103de576040517f08c379a00000000000000000000000000000000000000000000000000000000081526004016103d590610d17565b60405180910390fd5b600083815481106103f2576103f1610da3565b5b90600052602060002090600202016000016000848154811061041757610416610da3565b5b90600052602060002090600202016001015481805461043590610e78565b80601f016020809104026020016040519081016040528092919081815260200182805461046190610e78565b80156104ae5780601f10610483576101008083540402835291602001916104ae565b820191906000526020600020905b81548152906001019060200180831161049157829003601f168201915b5050505050915091509150915091565b600081815481106104ce57600080fd5b90600052602060002090600202016000915090508060000180546104f190610e78565b80601f016020809104026020016040519081016040528092919081815260200182805461051d90610e78565b801561056a5780601f1061053f5761010080835404028352916020019161056a565b820191906000526020600020905b81548152906001019060200180831161054d57829003601f168201915b5050505050908060010154905082565b600160009054906101000a900473ffffffffffffffffffffffffffffffffffffffff1673ffffffffffffffffffffffffffffffffffffffff163373ffffffffffffffffffffffffffffffffffffffff161461060a576040517f08c379a000000000000000000000000000000000000000000000000000000000815260040161060190610fb0565b60405180910390fd5b600060405180604001604052808381526020016000815250908060018154018082558091505060019003906000526020600020906002020160009091909190915060008201518160000190816106609190611167565b5060208201518160010155505050565b600160009054906101000a900473ffffffffffffffffffffffffffffffffffffffff1673ffffffffffffffffffffffffffffffffffffffff163373ffffffffffffffffffffffffffffffffffffffff1614610700576040517f08c379a00000000000000000000000000000000000000000000000000000000081526004016106f790610fb0565b60405180910390fd5b60005b815181101561079c576000604051806040016040528084848151811061072c5761072b610da3565b5b6020026020010151815260200160008152509080600181540180825580915050600190039060005260206000209060020201600090919091909150600082015181600001908161077c9190611167565b50602082015181600101555050808061079490610e01565b915050610703565b5050565b600160009054906101000a900473ffffffffffffffffffffffffffffffffffffffff1681565b60008080549050905090565b6000604051905090565b600080fd5b600080fd5b6000819050919050565b6107f9816107e6565b811461080457600080fd5b50565b600081359050610816816107f0565b92915050565b600060208284031215610832576108316107dc565b5b600061084084828501610807565b91505092915050565b600073ffffffffffffffffffffffffffffffffffffffff82169050919050565b600061087482610849565b9050919050565b61088481610869565b811461088f57600080fd5b50565b6000813590506108a18161087b565b92915050565b6000602082840312156108bd576108bc6107dc565b5b60006108cb84828501610892565b91505092915050565b60008115159050919050565b6108e9816108d4565b82525050565b600060208201905061090460008301846108e0565b92915050565b600081519050919050565b600082825260208201905092915050565b60005b83811015610944578082015181840152602081019050610929565b60008484015250505050565b6000601f19601f8301169050919050565b600061096c8261090a565b6109768185610915565b9350610986818560208601610926565b61098f81610950565b840191505092915050565b6109a3816107e6565b82525050565b600060408201905081810360008301526109c38185610961565b90506109d2602083018461099a565b9392505050565b600080fd5b600080fd5b7f4e487b7100000000000000000000000000000000000000000000000000000000600052604160045260246000fd5b610a1b82610950565b810181811067ffffffffffffffff82111715610a3a57610a396109e3565b5b80604052505050565b6000610a4d6107d2565b9050610a598282610a12565b919050565b600067ffffffffffffffff821115610a7957610a786109e3565b5b610a8282610950565b9050602081019050919050565b82818337600083830152505050565b6000610ab1610aac84610a5e565b610a43565b905082815260208101848484011115610acd57610acc6109de565b5b610ad8848285610a8f565b509392505050565b600082601f830112610af557610af46109d9565b5b8135610b05848260208601610a9e565b91505092915050565b600060208284031215610b2457610b236107dc565b5b600082013567ffffffffffffffff811115610b4257610b416107e1565b5b610b4e84828501610ae0565b91505092915050565b600067ffffffffffffffff821115610b7257610b716109e3565b5b602082029050602081019050919050565b600080fd5b6000610b9b610b9684610b57565b610a43565b90508083825260208201905060208402830185811115610bbe57610bbd610b83565b5b835b81811015610c0557803567ffffffffffffffff811115610be357610be26109d9565b5b808601610bf08982610ae0565b85526020850194505050602081019050610bc0565b5050509392505050565b600082601f830112610c2457610c236109d9565b5b8135610c34848260208601610b88565b91505092915050565b600060208284031215610c5357610c526107dc565b5b600082013567ffffffffffffffff811115610c7157610c706107e1565b5b610c7d84828501610c0f565b91505092915050565b610c8f81610869565b82525050565b6000602082019050610caa6000830184610c86565b92915050565b6000602082019050610cc5600083018461099a565b92915050565b7f496e76616c6964206f7074696f6e20696e646578000000000000000000000000600082015250565b6000610d01601483610915565b9150610d0c82610ccb565b602082019050919050565b60006020820190508181036000830152610d3081610cf4565b9050919050565b7f596f75206861766520616c726561647920766f74656400000000000000000000600082015250565b6000610d6d601683610915565b9150610d7882610d37565b602082019050919050565b60006020820190508181036000830152610d9c81610d60565b9050919050565b7f4e487b7100000000000000000000000000000000000000000000000000000000600052603260045260246000fd5b7f4e487b7100000000000000000000000000000000000000000000000000000000600052601160045260246000fd5b6000610e0c826107e6565b91507fffffffffffffffffffffffffffffffffffffffffffffffffffffffffffffffff8203610e3e57610e3d610dd2565b5b600182019050919050565b7f4e487b7100000000000000000000000000000000000000000000000000000000600052602260045260246000fd5b60006002820490506001821680610e9057607f821691505b602082108103610ea357610ea2610e49565b5b50919050565b60008190508160005260206000209050919050565b60008154610ecb81610e78565b610ed58186610915565b94506001821660008114610ef05760018114610f0657610f39565b60ff198316865281151560200286019350610f39565b610f0f85610ea9565b60005b83811015610f3157815481890152600182019150602081019050610f12565b808801955050505b50505092915050565b60006020820190508181036000830152610f5c8184610ebe565b905092915050565b7f43616c6c6572206973206e6f7420746865206f776e6572000000000000000000600082015250565b6000610f9a601783610915565b9150610fa582610f64565b602082019050919050565b60006020820190508181036000830152610fc981610f8d565b9050919050565b60006020601f8301049050919050565b600082821b905092915050565b60006008830261101d7fffffffffffffffffffffffffffffffffffffffffffffffffffffffffffffffff82610fe0565b6110278683610fe0565b95508019841693508086168417925050509392505050565b6000819050919050565b600061106461105f61105a846107e6565b61103f565b6107e6565b9050919050565b6000819050919050565b61107e83611049565b61109261108a8261106b565b848454610fed565b825550505050565b600090565b6110a761109a565b6110b2818484611075565b505050565b5b818110156110d6576110cb60008261109f565b6001810190506110b8565b5050565b601f82111561111b576110ec81610ea9565b6110f584610fd0565b81016020851015611104578190505b61111861111085610fd0565b8301826110b7565b50505b505050565b600082821c905092915050565b600061113e60001984600802611120565b1980831691505092915050565b6000611157838361112d565b9150826002028217905092915050565b6111708261090a565b67ffffffffffffffff811115611189576111886109e3565b5b6111938254610e78565b61119e8282856110da565b600060209050601f8311600181146111d157600084156111bf578287015190505b6111c9858261114b565b865550611231565b601f1984166111df86610ea9565b60005b82811015611207578489015182556001820191506020850194506020810190506111e2565b868310156112245784890151611220601f89168261112d565b8355505b6001600288020188555050505b50505050505056fea2646970667358221220457b50b722d2f5acd02e6de282f3bc9a12095f2488751de22ae71080e71a526f64736f6c63430008110033",
  "linkReferences": {},
  "deployedLinkReferences": {}
}